{
  "contractName": "ParametricInsurance",
  "abi": [
    {
      "inputs": [
        {
          "internalType": "uint256",
          "name": "",
          "type": "uint256"
        }
      ],
      "name": "policies",
      "outputs": [
        {
          "internalType": "address",
          "name": "insured",
          "type": "address"
        },
        {
          "internalType": "uint256",
          "name": "premium",
          "type": "uint256"
        },
        {
          "internalType": "uint256",
          "name": "payout",
          "type": "uint256"
        },
        {
          "internalType": "string",
          "name": "policyDetails",
          "type": "string"
        }
      ],
      "stateMutability": "view",
      "type": "function",
      "constant": true
    },
    {
      "inputs": [
        {
          "internalType": "uint256",
          "name": "premium",
          "type": "uint256"
        },
        {
          "internalType": "uint256",
          "name": "payout",
          "type": "uint256"
        },
        {
          "internalType": "string",
          "name": "policyDetails",
          "type": "string"
        }
      ],
      "name": "createContract",
      "outputs": [],
      "stateMutability": "nonpayable",
      "type": "function"
    },
    {
      "inputs": [],
      "name": "getTotalContracts",
      "outputs": [
        {
          "internalType": "uint256",
          "name": "",
          "type": "uint256"
        }
      ],
      "stateMutability": "view",
      "type": "function",
      "constant": true
    },
    {
      "inputs": [
        {
          "internalType": "uint256",
          "name": "index",
          "type": "uint256"
        }
      ],
      "name": "getContractDetails",
      "outputs": [
        {
          "internalType": "address",
          "name": "insured",
          "type": "address"
        },
        {
          "internalType": "uint256",
          "name": "premium",
          "type": "uint256"
        },
        {
          "internalType": "uint256",
          "name": "payout",
          "type": "uint256"
        },
        {
          "internalType": "string",
          "name": "policyDetails",
          "type": "string"
        }
      ],
      "stateMutability": "view",
      "type": "function",
      "constant": true
    }
  ],
  "bytecode": "0x608060405234801561001057600080fd5b506106ea806100206000396000f3fe608060405234801561001057600080fd5b506004361061004c5760003560e01c80634d6d6a9c14610051578063534860cc1461007d578063733b1cfc1461008e578063d3e89483146100a3575b600080fd5b61006461005f3660046103fa565b6100b6565b6040516100749493929190610413565b60405180910390f35b600054604051908152602001610074565b6100a161009c366004610495565b61022b565b005b6100646100b13660046103fa565b610328565b6000806000606060008054905085106101055760405162461bcd60e51b815260206004820152600d60248201526c092dcecc2d8d2c840d2dcc8caf609b1b604482015260640160405180910390fd5b600080868154811061011957610119610559565b90600052602060002090600402016040518060800160405290816000820160009054906101000a90046001600160a01b03166001600160a01b03166001600160a01b0316815260200160018201548152602001600282015481526020016003820180546101859061056f565b80601f01602080910402602001604051908101604052809291908181526020018280546101b19061056f565b80156101fe5780601f106101d3576101008083540402835291602001916101fe565b820191906000526020600020905b8154815290600101906020018083116101e157829003601f168201915b505050919092525050815160208301516040840151606090940151919a9099509297509550909350505050565b6040805160808101825233815260208101858152918101848152606082018481526000805460018101825590805283517f290decd9548b62a8d60345a988386fc84ba6bc95484008f6362f93160ef3e563600490920291820180546001600160a01b0319166001600160a01b0390921691909117815594517f290decd9548b62a8d60345a988386fc84ba6bc95484008f6362f93160ef3e56482015591517f290decd9548b62a8d60345a988386fc84ba6bc95484008f6362f93160ef3e565830155519192917f290decd9548b62a8d60345a988386fc84ba6bc95484008f6362f93160ef3e5669091019061032090826105f4565b505050505050565b6000818154811061033857600080fd5b600091825260209091206004909102018054600182015460028301546003840180546001600160a01b039094169550919390929091906103779061056f565b80601f01602080910402602001604051908101604052809291908181526020018280546103a39061056f565b80156103f05780601f106103c5576101008083540402835291602001916103f0565b820191906000526020600020905b8154815290600101906020018083116103d357829003601f168201915b5050505050905084565b60006020828403121561040c57600080fd5b5035919050565b60018060a01b038516815260006020858184015284604084015260806060840152835180608085015260005b8181101561045b5785810183015185820160a00152820161043f565b50600060a0828601015260a0601f19601f8301168501019250505095945050505050565b634e487b7160e01b600052604160045260246000fd5b6000806000606084860312156104aa57600080fd5b8335925060208401359150604084013567ffffffffffffffff808211156104d057600080fd5b818601915086601f8301126104e457600080fd5b8135818111156104f6576104f661047f565b604051601f8201601f19908116603f0116810190838211818310171561051e5761051e61047f565b8160405282815289602084870101111561053757600080fd5b8260208601602083013760006020848301015280955050505050509250925092565b634e487b7160e01b600052603260045260246000fd5b600181811c9082168061058357607f821691505b6020821081036105a357634e487b7160e01b600052602260045260246000fd5b50919050565b601f8211156105ef57600081815260208120601f850160051c810160208610156105d05750805b601f850160051c820191505b81811015610320578281556001016105dc565b505050565b815167ffffffffffffffff81111561060e5761060e61047f565b6106228161061c845461056f565b846105a9565b602080601f831160018114610657576000841561063f5750858301515b600019600386901b1c1916600185901b178555610320565b600085815260208120601f198616915b8281101561068657888601518255948401946001909101908401610667565b50858210156106a45787850151600019600388901b60f8161c191681555b5050505050600190811b0190555056fea2646970667358221220a57420a0e9c3c6cb75c82d1a06f1467fc4b2fc25ff88b710f846578da985532664736f6c63430008150033",
  "immutableReferences": {},
  "source": "// SPDX-License-Identifier: MIT\r\npragma solidity ^0.8.0;\r\n\r\ncontract ParametricInsurance {\r\n    struct InsurancePolicy {\r\n        address insured;\r\n        uint256 premium;\r\n        uint256 payout;\r\n        string policyDetails;\r\n    }\r\n\r\n    InsurancePolicy[] public policies;\r\n\r\n    function createContract(uint256 premium, uint256 payout, string memory policyDetails) public {\r\n        policies.push(InsurancePolicy(msg.sender, premium, payout, policyDetails));\r\n    }\r\n\r\n    function getTotalContracts() public view returns (uint256) {\r\n        return policies.length;\r\n    }\r\n\r\n    function getContractDetails(uint256 index) public view returns (\r\n        address insured, \r\n        uint256 premium, \r\n        uint256 payout, \r\n        string memory policyDetails\r\n    ) {\r\n        require(index < policies.length, \"Invalid index\");\r\n        InsurancePolicy memory policy = policies[index];\r\n        return (policy.insured, policy.premium, policy.payout, policy.policyDetails);\r\n    }\r\n}\r\n",
  "sourcePath": "C:\\Users\\myzib\\insurance-dapp\\contracts\\ParametricInsurance.sol",
  "compiler": {
    "name": "solc",
    "version": "0.8.21+commit.d9974bed.Emscripten.clang"
  },
  "schemaVersion": "3.4.16",
  "updatedAt": "2025-01-17T16:05:07.712Z",
  "networkType": "ethereum",
  "devdoc": {
    "kind": "dev",
    "methods": {},
    "version": 1
  },
  "userdoc": {
    "kind": "user",
    "methods": {},
    "version": 1
  }
}